{
  "contractName": "HealthcareData",
  "abi": [
    {
      "anonymous": false,
      "inputs": [
        {
          "indexed": true,
          "internalType": "address",
          "name": "owner",
          "type": "address"
        },
        {
          "indexed": false,
          "internalType": "string",
          "name": "dataHash",
          "type": "string"
        },
        {
          "indexed": false,
          "internalType": "uint256",
          "name": "timestamp",
          "type": "uint256"
        },
        {
          "indexed": false,
          "internalType": "string",
          "name": "action",
          "type": "string"
        }
      ],
      "name": "DataProvenance",
      "type": "event"
    },
    {
      "inputs": [
        {
          "internalType": "uint256",
          "name": "",
          "type": "uint256"
        }
      ],
      "name": "dataRecords",
      "outputs": [
        {
          "internalType": "address",
          "name": "owner",
          "type": "address"
        },
        {
          "internalType": "string",
          "name": "dataHash",
          "type": "string"
        },
        {
          "internalType": "uint256",
          "name": "timestamp",
          "type": "uint256"
        },
        {
          "internalType": "string",
          "name": "action",
          "type": "string"
        }
      ],
      "stateMutability": "view",
      "type": "function",
      "constant": true
    },
    {
      "inputs": [],
      "name": "merkleRoot",
      "outputs": [
        {
          "internalType": "bytes32",
          "name": "",
          "type": "bytes32"
        }
      ],
      "stateMutability": "view",
      "type": "function",
      "constant": true
    },
    {
      "inputs": [
        {
          "internalType": "string",
          "name": "_dataHash",
          "type": "string"
        },
        {
          "internalType": "string",
          "name": "_action",
          "type": "string"
        }
      ],
      "name": "addDataRecord",
      "outputs": [],
      "stateMutability": "nonpayable",
      "type": "function"
    },
    {
      "inputs": [
        {
          "internalType": "bytes32",
          "name": "_merkleRoot",
          "type": "bytes32"
        }
      ],
      "name": "updateMerkleRoot",
      "outputs": [],
      "stateMutability": "nonpayable",
      "type": "function"
    },
    {
      "inputs": [],
      "name": "getTotalRecords",
      "outputs": [
        {
          "internalType": "uint256",
          "name": "",
          "type": "uint256"
        }
      ],
      "stateMutability": "view",
      "type": "function",
      "constant": true
    },
    {
      "inputs": [
        {
          "internalType": "uint256",
          "name": "_index",
          "type": "uint256"
        }
      ],
      "name": "getDataRecord",
      "outputs": [
        {
          "internalType": "address",
          "name": "",
          "type": "address"
        },
        {
          "internalType": "string",
          "name": "",
          "type": "string"
        },
        {
          "internalType": "uint256",
          "name": "",
          "type": "uint256"
        },
        {
          "internalType": "string",
          "name": "",
          "type": "string"
        }
      ],
      "stateMutability": "view",
      "type": "function",
      "constant": true
    }
  ],
  "bytecode": "0x608060405234801561001057600080fd5b50610bf6806100206000396000f3fe608060405234801561001057600080fd5b50600436106100625760003560e01c80630aeacb5e146100675780632eb4a7ab146100855780633aad590b146100a35780634783f0ef146100d6578063a2a2e587146100f2578063c8592e0b1461010e575b600080fd5b61006f610141565b60405161007c91906109d1565b60405180910390f35b61008d61014d565b60405161009a9190610951565b60405180910390f35b6100bd60048036038101906100b8919061082f565b610153565b6040516100cd94939291906108fe565b60405180910390f35b6100f060048036038101906100eb919061079a565b6103a0565b005b61010c600480360381019061010791906107c3565b6103aa565b005b6101286004803603810190610123919061082f565b6104f5565b60405161013894939291906108fe565b60405180910390f35b60008080549050905090565b60015481565b600060606000606060008054905085106101a2576040517f08c379a0000000000000000000000000000000000000000000000000000000008152600401610199906109b1565b60405180910390fd5b60008086815481106101dd577f4e487b7100000000000000000000000000000000000000000000000000000000600052603260045260246000fd5b90600052602060002090600402016040518060800160405290816000820160009054906101000a900473ffffffffffffffffffffffffffffffffffffffff1673ffffffffffffffffffffffffffffffffffffffff1673ffffffffffffffffffffffffffffffffffffffff16815260200160018201805461025c90610af1565b80601f016020809104026020016040519081016040528092919081815260200182805461028890610af1565b80156102d55780601f106102aa576101008083540402835291602001916102d5565b820191906000526020600020905b8154815290600101906020018083116102b857829003601f168201915b50505050508152602001600282015481526020016003820180546102f890610af1565b80601f016020809104026020016040519081016040528092919081815260200182805461032490610af1565b80156103715780601f1061034657610100808354040283529160200191610371565b820191906000526020600020905b81548152906001019060200180831161035457829003601f168201915b505050505081525050905080600001518160200151826040015183606001519450945094509450509193509193565b8060018190555050565b600060405180608001604052803373ffffffffffffffffffffffffffffffffffffffff168152602001848152602001428152602001838152509050600081908060018154018082558091505060019003906000526020600020906004020160009091909190915060008201518160000160006101000a81548173ffffffffffffffffffffffffffffffffffffffff021916908373ffffffffffffffffffffffffffffffffffffffff1602179055506020820151816001019080519060200190610474929190610665565b5060408201518160020155606082015181600301908051906020019061049b929190610665565b5050503373ffffffffffffffffffffffffffffffffffffffff167f9a5db77c8f2635cb299a407eec4ccb48def7f7d090770ed73871445a5ccf9cca8442856040516104e89392919061096c565b60405180910390a2505050565b6000818154811061050557600080fd5b90600052602060002090600402016000915090508060000160009054906101000a900473ffffffffffffffffffffffffffffffffffffffff169080600101805461054e90610af1565b80601f016020809104026020016040519081016040528092919081815260200182805461057a90610af1565b80156105c75780601f1061059c576101008083540402835291602001916105c7565b820191906000526020600020905b8154815290600101906020018083116105aa57829003601f168201915b5050505050908060020154908060030180546105e290610af1565b80601f016020809104026020016040519081016040528092919081815260200182805461060e90610af1565b801561065b5780601f106106305761010080835404028352916020019161065b565b820191906000526020600020905b81548152906001019060200180831161063e57829003601f168201915b5050505050905084565b82805461067190610af1565b90600052602060002090601f01602090048101928261069357600085556106da565b82601f106106ac57805160ff19168380011785556106da565b828001600101855582156106da579182015b828111156106d95782518255916020019190600101906106be565b5b5090506106e791906106eb565b5090565b5b808211156107045760008160009055506001016106ec565b5090565b600061071b61071684610a1d565b6109ec565b90508281526020810184848401111561073357600080fd5b61073e848285610aaf565b509392505050565b60008135905061075581610b92565b92915050565b600082601f83011261076c57600080fd5b813561077c848260208601610708565b91505092915050565b60008135905061079481610ba9565b92915050565b6000602082840312156107ac57600080fd5b60006107ba84828501610746565b91505092915050565b600080604083850312156107d657600080fd5b600083013567ffffffffffffffff8111156107f057600080fd5b6107fc8582860161075b565b925050602083013567ffffffffffffffff81111561081957600080fd5b6108258582860161075b565b9150509250929050565b60006020828403121561084157600080fd5b600061084f84828501610785565b91505092915050565b61086181610a69565b82525050565b61087081610a7b565b82525050565b600061088182610a4d565b61088b8185610a58565b935061089b818560208601610abe565b6108a481610b81565b840191505092915050565b60006108bc600d83610a58565b91507f496e76616c696420696e646578000000000000000000000000000000000000006000830152602082019050919050565b6108f881610aa5565b82525050565b60006080820190506109136000830187610858565b81810360208301526109258186610876565b905061093460408301856108ef565b81810360608301526109468184610876565b905095945050505050565b60006020820190506109666000830184610867565b92915050565b600060608201905081810360008301526109868186610876565b905061099560208301856108ef565b81810360408301526109a78184610876565b9050949350505050565b600060208201905081810360008301526109ca816108af565b9050919050565b60006020820190506109e660008301846108ef565b92915050565b6000604051905081810181811067ffffffffffffffff82111715610a1357610a12610b52565b5b8060405250919050565b600067ffffffffffffffff821115610a3857610a37610b52565b5b601f19601f8301169050602081019050919050565b600081519050919050565b600082825260208201905092915050565b6000610a7482610a85565b9050919050565b6000819050919050565b600073ffffffffffffffffffffffffffffffffffffffff82169050919050565b6000819050919050565b82818337600083830152505050565b60005b83811015610adc578082015181840152602081019050610ac1565b83811115610aeb576000848401525b50505050565b60006002820490506001821680610b0957607f821691505b60208210811415610b1d57610b1c610b23565b5b50919050565b7f4e487b7100000000000000000000000000000000000000000000000000000000600052602260045260246000fd5b7f4e487b7100000000000000000000000000000000000000000000000000000000600052604160045260246000fd5b6000601f19601f8301169050919050565b610b9b81610a7b565b8114610ba657600080fd5b50565b610bb281610aa5565b8114610bbd57600080fd5b5056fea264697066735822122022be8c4d4fce5c821dc294d57d64ce286e41698c0498f2c6b5760adb4bd1ae5b64736f6c63430008000033",
  "immutableReferences": {},
  "source": "// SPDX-License-Identifier: MIT\r\npragma solidity ^0.8.0;\r\n\r\ncontract HealthcareData {\r\n    // Struct to store healthcare data provenance\r\n    struct DataRecord {\r\n        address owner;\r\n        string dataHash;  // A hash representing the data for integrity\r\n        uint256 timestamp;\r\n        string action;    // Description of action (e.g., \"created\", \"modified\", \"accessed\")\r\n    }\r\n\r\n    // Array to store data records\r\n    DataRecord[] public dataRecords;\r\n\r\n    // Merkle root storage\r\n    bytes32 public merkleRoot;\r\n\r\n    // Event to track provenance actions\r\n    event DataProvenance(\r\n        address indexed owner,\r\n        string dataHash,\r\n        uint256 timestamp,\r\n        string action\r\n    );\r\n\r\n    // Function to add a new data record\r\n    function addDataRecord(string memory _dataHash, string memory _action) public {\r\n        DataRecord memory newRecord = DataRecord({\r\n            owner: msg.sender,\r\n            dataHash: _dataHash,\r\n            timestamp: block.timestamp,\r\n            action: _action\r\n        });\r\n        dataRecords.push(newRecord);\r\n        emit DataProvenance(msg.sender, _dataHash, block.timestamp, _action);\r\n    }\r\n\r\n    // Function to update the Merkle root\r\n    function updateMerkleRoot(bytes32 _merkleRoot) public {\r\n        merkleRoot = _merkleRoot;\r\n    }\r\n\r\n    // Function to get the total number of records\r\n    function getTotalRecords() public view returns (uint256) {\r\n        return dataRecords.length;\r\n    }\r\n\r\n    // Function to retrieve a specific data record\r\n    function getDataRecord(uint256 _index) public view returns (address, string memory, uint256, string memory) {\r\n        require(_index < dataRecords.length, \"Invalid index\");\r\n        DataRecord memory record = dataRecords[_index];\r\n        return (record.owner, record.dataHash, record.timestamp, record.action);\r\n    }\r\n}",
  "sourcePath": "D:\\healthcare-provenance\\contracts\\HealthcareData.sol",
  "compiler": {
    "name": "solc",
    "version": "0.8.0+commit.c7dfd78e.Emscripten.clang"
  },
  "schemaVersion": "3.4.16",
  "updatedAt": "2024-10-03T06:27:03.456Z",
  "networkType": "ethereum",
  "devdoc": {
    "kind": "dev",
    "methods": {},
    "version": 1
  },
  "userdoc": {
    "kind": "user",
    "methods": {},
    "version": 1
  }
}